:10000000B80A00203D0B0000513200006D0B0000CB
:100010006D0B00006D0B00006D0B00000000000078
:10002000000000000000000000000000A90900001E
:100030006D0B00000000000061090000DD300000D1
:10004000FD0A0000FD0A0000FD0A0000FD0A000094
:10005000FD0A0000FD0A0000FD0A0000FD0A000084
:10006000FD0A0000FD0A0000FD0A0000FD0A000074
:10007000FD0A0000FD0A0000FD0A0000FD0A000064
:10008000FD0A0000FD0A0000FD0A0000FD0A000054
:10009000FD0A0000FD0A0000FD0A0000FD0A000044
:1000A000FD0A0000FD0A0000FD0A0000FD0A000034
:1000B000FD0A0000FD0A0000FD0A0000FD0A000024
:1000C000FD0A0000FD0A0000FD0A0000FD0A000014
:0C00D000FD0A0000FD0A0000FD0A00000F
:1000DC0053B94AB9002908BF00281CBF4FF0FF31A3
:1000EC004FF0FF3000F06EB9ADF1080C6DE904CEA5
:1000FC0000F006F8DDF804E0DDE9022304B07047F7
:10010C002DE9F047089D0E4604468C46002B40F026
:10011C0081808A42174645D9B2FA82F24AB1C2F1BD
:10012C00200106FA02F320FA01F1974041EA030C90
:10013C0094404FEA174E230CBCFBFEF6B9B20EFBF3
:10014C0016CC43EA0C4306FB01F0984209D9FB1884
:10015C0006F1FF3C80F01581984240F21281023E7C
:10016C003B441B1AA4B2B3FBFEF00EFB103344EA63
:10017C00034400FB01F1A14209D93C1900F1FF3302
:10018C0080F00181A14240F2FE8002383C44641AA6
:10019C0040EA064000211DB1D4400023C5E90043CC
:1001AC00BDE8F08702B9FFDEB2FA82F2002A4FD125
:1001BC00CB1B4FEA174E1FFA87F80121B3FBFEFC4D
:1001CC00260C0EFB1C3346EA034608FB0CF3B34229
:1001DC0007D9BE190CF1FF3002D2B34200F2EB800A
:1001EC008446F61AA3B2B6FBFEF00EFB106643EA89
:1001FC00064408FB00F8A04507D93C1900F1FF3371
:10020C0002D2A04500F2D2801846A4EB080440EAC2
:10021C000C40C0E78B4208D9002D00F0AF800021C4
:10022C00C5E900060846BDE8F087B3FA83F100295A
:10023C0049D1B34202D3824200F2BB80841A66EBEE
:10024C00030301209C46002DAAD0C5E9004CA7E76A
:10025C00C2F120039740D8409140DE404FEA174E40
:10026C0008434FEA104CB6FBFEF11FFA87F80EFB61
:10027C0011664CEA064601FB08F3B34204FA02F499
:10028C0009D9BE1901F1FF3C80F08E80B34240F2D7
:10029C008B8002393E44F31A86B2B3FBFEF00EFBA0
:1002AC00103346EA034600FB08F3B34207D9BE19E4
:1002BC0000F1FF3C74D2B34272D902383E44F31AB7
:1002CC0040EA01417AE7C1F1200703FA01F422FA6E
:1002DC0007F31C4320FA07F906FA01F34FEA144C12
:1002EC00FE4049EA03094FEA1943B6FBFCFE1FFA2C
:1002FC0084F80CFB1E6643EA06460EFB08FAB24570
:10030C0002FA01F200FA01F308D9A6190EF1FF3036
:10031C0048D2B24546D9AEF1020E2644A6EB0A06E7
:10032C001FFA89F9B6FBFCF00CFB106649EA06468D
:10033C0000FB08F8B04507D9A61900F1FF3C2DD2F7
:10034C00B0452BD90238264440EA0E40A6EB0806ED
:10035C00A0FB02894E45C446CE4618D315D075B3C2
:10036C00B3EB0C0266EB0E0606FA07F722FA01F362
:10037C00CE401F43C5E90076002111E729462846E7
:10038C000EE76646EDE6184601E74345E7D2B8EBC3
:10039C00020C69EB04040138A646E0E76046D3E79B
:1003AC0060468CE78646B9E7614674E702383C4400
:1003BC002BE7084647E7ACF1020C3E4411E729460F
:1003CC00EEE600BF704700BF38B51A4801F018FBC5
:1003DC0078B30546C46883681B6840F2016211213A
:1003EC009847024618B9236843F400332360002A67
:1003FC001FDB01240CE0AB68DB684FF400312846AE
:10040C00984784F001044FF40040002102F090F86A
:10041C002346EA68126812F4003F01D084F001030D
:10042C00002BE8D1AB681B694FF400312846984784
:10043C00E7E738BDD83C000008B50B6801330B600A
:10044C00014B1B68984708BD000000202DE9F84FB0
:10045C0081468A4615469B460A9B002B05DD4FF0CC
:10046C0001080A260027214C13E001230A93F6E722
:10047C00B5FBF4F051463030C84708F101080127AC
:10048C00013EB5FBF4F304FB1355194BA3FB0434E9
:10049C00E408092C14D9002FEAD1AC42E8D90A9B04
:1004AC009E42EDDCBBF1020FEAD8BBF1010F05D087
:1004BC0020205146C84708F10108E1E73020F8E751
:1004CC00514605F13000C847BBF1030F01D0BDE820
:1004DC00F88F0A9BA3EB080808F1FF34B8F1000F62
:1004EC00F5DD51462020C847A046F5E700CA9A3BE7
:1004FC00CDCCCCCC014B1860704700BF0000002065
:10050C0000B583B002460B460021019101A90348B6
:10051C0002F076FA03B05DF804FB00BF450400005E
:10052C0010B5044C2046FFF7E5FF204600F0C0FC58
:10053C00002010BD45050000F0B583B007468DF8CE
:10054C000700022606E0134B01221A701EE002F08F
:10055C00D1FC013E104D4FF0FF324FF0FF332846D7
:10056C0001F07CFB01220DF10701002000F0A2F943
:10057C000446284601F0FCFB002CE4D1054B1B780B
:10058C0023B1002EE3D1034B00221A70384603B07E
:10059C00F0BD00BFB00600207000002008B501219E
:1005AC004FF4807002F0B0FC28B100210A4802F030
:1005BC00D1FC437A33B102214FF4827002F0A4FCD7
:1005CC0028B908BD0021044802F049FDF3E70121D8
:1005DC00014802F044FDF4E71C0000202DE9F0472F
:1005EC0080460F461546CCB2214602F0B9FC814636
:1005FC002146404602F0AEFC064625B1294602F0E3
:10060C00EDFC002841D14FF02002EFF3118382F36F
:10061C001188BFF36F8F347A0134E4B2347283F3F0
:10062C001188BFF36F8F85B102F088FC96F809A092
:10063C00BAF1000F0ED002F087FCBAF1000F04D013
:10064C006B68AA68394640469847012C07D00020B1
:10065C00BDE8F0872946304602F0CDFCEBE7012FD0
:10066C0007D099F8023003F1804301221A60002070
:10067C00EEE7074B1B78002BF3D14FF4A57003F07A
:10068C00D0F9034B01221A70EBE76FF00F00DFE794
:10069C00B106002020F07F40014BC3F840057047A5
:1006AC0000100140014BD3F8400570470010014089
:1006BC0082B0044B00221A601B680193019B02B0AC
:1006CC00704700BF40110140024B4FF48032C3F819
:1006DC004423704700100140024B4FF48032C3F8A2
:1006EC000823704700100140024B4FF48032C3F8CE
:1006FC000423704700100140014BD3F804057047E8
:10070C000010014038B5FFF7D3FFFFF7CBFF054DC5
:10071C002C68214602F0DEFC04442C6002F078F8D0
:10072C0038BD00BFA800002038B5FFF7E5FF044630
:10073C00FFF7B8FF0546FFF7BBFF2046FFF7AAFF00
:10074C00FFF7C2FF2146284602F0C4FC012805D061
:10075C00054B4FF40032C3F8802138BD0F2003F055
:10076C0060F9FFF7A5FFF3E700E100E038B51348A7
:10077C0001F046F9F0B18268126801219047104DE2
:10078C000024C5F80845FFF793FF0E4B4FF40032D9
:10079C00C3F88021FFF7A8FF22460121112000F0A9
:1007AC001DF9112000F00AF90123074A13602B6090
:1007BC00204638BD4FF0FF30FBE700BFE03C0000A7
:1007CC000010014000E100E00810014038B5B0F124
:1007DC00FF3F1ED0441E114B9C4201DC002C1BDD44
:1007EC000E4B9C4200DD0E4CFFF786FF0D4B1D6837
:1007FC00294602F06FFCB0F5000F00D30024204412
:10080C000130B0F5000F00D30548284402F098FCE5
:10081C0038BD00F50000DDE70024E5E7FEFF7F00B2
:10082C00FFFF7F00A800002010B54FF02003EFF36E
:10083C00118483F31188BFF36F8FFFF75DFF044BB7
:10084C00196802F047FC84F31188BFF36F8F10BD59
:10085C00A800002010B5114C032323616361104ADA
:10086C00A261104BE3614FF4806323620023A36207
:10087C006362E36222660C4A62661022A2662367F8
:10088C00E36663670949E01D02F064FD08492046F0
:10089C0002F060FD2023A37110BD00BFAC0000204E
:1008AC00103D000064010020540100201C3D00009C
:1008BC00203D0000F8B50F461646184B451C05EBBD
:1008CC00450503EBC50500EB400003EBC000C46A13
:1008DC00012C11D0022C1CD014B100242046F8BDE0
:1008EC00284602F039FC8642F8D83246394628466A
:1008FC0002F03EFC3446F1E7284602F02DFC34466B
:10090C00864228BF044622463946284602F030FC6F
:10091C00E4E7284602F04EFC0446DFE7AC0000207A
:10092C00094A9368D86609490968196708494B68E8
:10093C0043F080534B60002383F31188BFF36F8F18
:10094C009368186F704700BF70060020C43D00000C
:10095C0000ED00E00F498A684FF030001044EFF3CF
:10096C00098C80E8F01F202080F31188BFF36F8F73
:10097C00094F4FF000664A6A8A603E60D06E0023D1
:10098C00D36680F3118802F1300090E8F01F8CF3ED
:10099C00098870477006002004ED00E01EF0040F7B
:1009AC000CBFEFF30880EFF30980816911F8021C8A
:1009BC000229FFD001B502F03FFC01BD43B2002B70
:1009CC0008DB00F01F005B09012202FA00F0024A6A
:1009DC0042F82300704700BF00E100E0013143B250
:1009EC00002B08DB4901C9B203F1604303F56143F5
:1009FC0083F80013704700F00F004901C9B2014B96
:100A0C001954704714ED00E010B48C18016642665E
:100A1C00A4F1200222F00702094921F001019161A1
:100A2C001360019B5360029B9360039BD3604FF058
:100A3C008073D36102650023C36610BC704700BF8E
:100A4C00672D0000F8B506460C4617461D4600F00B
:100A5C00C3F93C4424F00704074B9E60284684F3FA
:100A6C000988002163B681F31188BFF36F8F0022D0
:100A7C00002302F072F900BF700600200149102219
:100A8C000A60704710ED00E072B6404080F31188A8
:100A9C00BFF36F8FBFF34F8F30BF62B6BFF36F8F53
:100AAC00704700BF30BFFFF7FDBF00BF08B50E4B4E
:100ABC000E4A22F07F029A60BFF34F8FBFF36F8F05
:100ACC00D3F8882022F47002C3F88820EFF3148343
:100ADC0023F0040383F3148801F03EF801F048F886
:100AEC0000F03AF901F082F800ED00E0000000009F
:100AFC0001B572B60B4A106A00281EBF00211162A4
:100B0C0002F04EFE62B6EFF30580A0F110004FEA42
:100B1C00C0000549014409C99847BDE80140034993
:100B2C000847000070060020983B0000490D0000AB
:100B3C0002F067FC202080F3118808484FF4006114
:100B4C00401880F30988EFF314800221084380F3E6
:100B5C001488BFF36F8FFFF7A9FF0000F80B00207C
:100B6C00EFF30880EFF30981724601B500F094F8B9
:100B7C0001BD00BF10B514460F4B9A6A9A6A9B6A66
:100B8C0013F0020F0BD00C4B5A6B9B6A13F0800FB7
:100B9C0005D021B1084A936A23F080039362064B77
:100BAC009A6A9A6A9A6A9A6A42F0FF029A6202F008
:100BBC004FFB2070002010BD00ED00E010B5144676
:100BCC00124B9A6A9A6A9B6A13F4007F0BD00F4BF4
:100BDC009A6B9B6A13F4004F05D021B10B4A936AB0
:100BEC0023F400439362094B9A6A9B6A13F4807F47
:100BFC0001D1064B9B6A054A936A43F47F43936287
:100C0C0002F026FB2070002010BD00BF00ED00E0BC
:100C1C00074B9A6A9A6A9A6A9A6A9A6A9A6A9A6A5A
:100C2C006FEA02426FEA12429A620020704700BFDC
:100C3C0000ED00E000230B70144BDA6A12F0020294
:100C4C0021D110B50446D86A10F0804010D028335A
:100C5C001B7843B90E4B1B785BB90E4B1B889BB2B0
:100C6C006BB9104604E00A4601212046FFF782FFCB
:100C7C0010BD0A4601212046FFF7A0FFF8E72046E9
:100C8C00FFF7C6FFF4E70020704700BF00ED00E05F
:100C9C0029ED00E02AED00E070B58AB00C46224B3D
:100CAC005968C1F30801002383F31188BFF36F8FD8
:100CBC0002F07F43B3F17F4F15D102F00C03082BE8
:100CCC0014D012F0080F0BD000260DF1270220468D
:100CDC0002F0C0FA05469DF8273053B10AB070BD3A
:100CEC0004460126F1E700263446EEE7002634469A
:100CFC00EBE72022214601A802F03FFB4EB1089BF6
:100D0C00C3F308025AB96FEA53236FEA43230893DB
:100D1C0005E0089B23F4FF7323F00103089301A95A
:100D2C00284602F085FAD9E700ED00E0024A536943
:100D3C0043F010035361704700ED00E0044B9968D9
:100D4C00586A884203D003494FF080520A607047BA
:100D5C007006002004ED00E0002206E002F00F0116
:100D6C00094B0B44202119760132262A0ADC53B296
:100D7C00002BF3DB03F1604303F56143202183F87F
:100D8C000013F1E7704700BFFCEC00E038B50446F7
:100D9C004FF02003EFF3118583F31188BFF36F8FAE
:100DAC0001F02CFA0A4B9B68A34203D0284602F0B0
:100DBC003AFD38BD074B5B68C3F308032BB1054AFA
:100DCC00536843F080535360F0E72846FFF7A8FDC3
:100DDC007006002000ED00E000B585B0084B0193D3
:100DEC00084B0293084B039301AB0093074B084A43
:100DFC000121684602F0AAFA05B05DF804FB00BFB9
:100E0C00000000200000000000000B060000012084
:100E1C0000000020064A90600B6823F01F03034378
:100E2C0043F01003D3608B6843F0010313617047E8
:100E3C0090ED00E010B5034C0123227802F060FA2B
:100E4C00207010BDB2060020034B05225A60BFF380
:100E5C004F8FBFF36F8F704790ED00E0BFF35F8F44
:100E6C00014B00225A60704790ED00E038B50E4BF4
:100E7C001D68082D15D8FFF7F1FF0024A5420AD9EB
:100E8C00094B596804EB4402930019442046FFF7C0
:100E9C00C1FF0134F2E7054B1D70FFF7D5FF0020B1
:100EAC0038BD4FF0FF30FBE7383D0000B2060020A4
:100EBC00014B1860704700BF040000204FF0200366
:100ECC00EFF3118283F31188BFF36F8F012306496F
:100EDC00C1F840354FF08041C1F8783582F3118864
:100EEC00BFF36F8F0020704700E0014030B108B5B0
:100EFC008001034B43F00103984708BD704700BFC6
:100F0C00D03C00000023072B42D8F0B482B003F58C
:100F1C00A272214C54F8222012F0030F08D0013396
:100F2C00DBB2072BF3D96FF0120002B0F0BC7047A4
:100F3C0003F14002920094B2174E03F5A27556F8D5
:100F4C00252022F4473222F4407246F8252056F828
:100F5C002570020202F4F852090401F440310A43EC
:100F6C003A4346F8252004F1804202F5C0420020A5
:100F7C00106012680192019A56F8252042F0010285
:100F8C0046F82520012202FA03F3C6F80433CCE715
:100F9C006FF01200704700BF0060004010B4134B9C
:100FAC00D3F80443E4B2002300E00133072B1BD831
:100FBC0003F5A2720D4951F82220C2F3042290428B
:100FCC00F3D124FA03F212F0010FEED00A4603F526
:100FDC00A27051F8201021F0010142F820100121DB
:100FEC0001FA03F3C2F8083310BC704700600040EC
:100FFC00F0B443685F68344B1340344CA34227D0A1
:10100C0012D8062B26D004D9B3F5801F09D10124A0
:10101C0016E00BB3022B01D1042411E06FF0150084
:10102C0043E06FF0150040E0294CA34216D0B3F515
:10103C00A00F01D1032403E0B3F5800F41D10224AA
:10104C0012F0100F0CD112F0200F30D0012508E057
:10105C000724F5E70624F3E70024F1E70524EFE77E
:10106C000325C2F3402312F4807F0CBF0126002617
:10107C0012F4007F06D012F4006F1AD001228A40BD
:10108C00C7F808254268127A01F01F0141EA4211A3
:10109C0043EA460343EA850343EA042301F5E0717E
:1010AC004FF0A04242F821300020F0BC70470025E0
:1010BC00D7E712F4806FE5D001228A40C7F80C25DF
:1010CC00E0E76FF01500F0E70600F00006001000F6
:1010DC0002004000F0B585B000230393304B1C6830
:1010EC000CB900210BE02F4802F0E9FA03902C4BCD
:1010FC0000221A601B680193019BF2E7013107295A
:10110C0028D801F140039B009AB201238B4026485A
:10111C00D0F804030342F1D002F1804303F5C0433D
:10112C001B68002BEAD001F5A2731F4850F823006E
:10113C00C0F30420012303FA00F0039B0343039341
:10114C0002F1804303F5C04300221A601B6802932E
:10115C00029BD3E7039E16B9F4B905B0F0BD114B51
:10116C00DF68796819B10D4649B10D6807E00D4685
:10117C0005E07DB12B4605B12B6829461D4600299B
:10118C00EAD08A6832403B691A42F2D04B68054873
:10119C009847EEE72B46F0E7024802F05EFADCE7F0
:1011AC007C6100404C0000200060004008B50B4BF7
:1011BC001B780BB1002008BD084B01221A700022CD
:1011CC0005210620FFF70AFC0620FFF7F7FB044B6E
:1011DC004FF00042C3F80423ECE700BFB306002035
:1011EC0000600040024B1868003818BF012070479F
:1011FC001C21004082B0044B00221A601B68019332
:10120C00019B02B0704700BF1C210040B1F5164F86
:10121C006DD03BD8B1F5165F6BD00AD9B1F5E14F63
:10122C0072D025D947F6122399422CD14FF40003E2
:10123C0013E0B1F5966F5ED007D9B1F5166F60D09B
:10124C00B1F5965F11D13A4B07E0B1F5967F55D0C9
:10125C00B1F5167F06D14FF41C33364AC2F824354B
:10126C00002070476FF0150070476FF01500704745
:10127C00B1F5615F4AD0B1F5964F01D12E4BECE739
:10128C006FF0150070476FF015007047B1F5613FB6
:10129C003FD009D9B1F5612F42D01DD9274B9942C6
:1012AC0043D14FF08053D8E7B1F5963F33D004D9F2
:1012BC00B1F5E13F0DD1224BCFE74DF6C02399425A
:1012CC002BD0B1F5614F01D11E4BC6E76FF0150065
:1012DC0070476FF0150070471B4B994222D0B1F547
:1012EC00E12F01D1194BB8E76FF015007047184B7F
:1012FC00B3E7184BB1E74FF49E23AEE74FF4A0339E
:10130C00ABE74FF41D23A8E7134BA6E74FF46C1380
:10131C00A3E7124BA1E7124B9FE74FF465039CE741
:10132C00104B9AE74FF0806397E76FF0150070470A
:10133C0000B013000020004000A04E0040420F00FF
:10134C0000E0D70100F0EB0090D0030000705F07C5
:10135C0000509D000050270000F0750000B0AF0356
:10136C0000903A0100D0BE0E094B1B6863B182B0ED
:10137C00074B002018601B680193019B054BD3F8A9
:10138C0018350B7002B070474FF0FF30704700BF3C
:10139C000821004000200040024BD3F88004C3F821
:1013AC0080047047002000404B79012B3BD130B5B5
:1013BC0083B005460C468B79032B38D1CB7933B1EE
:1013CC00012B0ED06FF02203184603B030BD002362
:1013DC008DF8043023795BB1022B20D06FF02203FF
:1013EC00F2E743681B782BB301238DF80430F1E747
:1013FC0000238DF8053021682846FFF707FF0346C8
:10140C00D8B99DF805209DF804100A430C49C1F881
:10141C006C25EA6894E8030082E80300D4E70E2305
:10142C008DF80530E7E76FF02203184670476FF030
:10143C002203C9E76FF02203C6E76FF02203C3E76C
:10144C000020004030B583B04FF0A0434022C3F8D9
:10145C0008250324C3F818470021C3F82017134AA2
:10146C000825C2F814550625C2F80C552025C3F8DA
:10147C000855C3F81447C3F81C170523C2F80835E0
:10148C000723C2F81035C168FFF78EFF58B9074B18
:10149C000422C3F80025064A00211160126801924B
:1014AC00019A01221A6003B030BD00BF0020004039
:1014BC000821004038B50C4602F0ADFAC0B96425DD
:1014CC00194B0122BFF35B8F53E8001F002903D196
:1014DC0043E800200028F7D1BFF35B8F0BD021200D
:1014EC00002101F025F8013D15F0FF05E8D11AE0C7
:1014FC000D4B01221A60FFF77DFE0C4B01221A6086
:10150C00083BC3F81C454FF47A74FFF76BFE20B907
:10151C00012002F00AF9013CF7D1054B01221A60B7
:10152C00014B00221A6038BD8405002008200040C1
:10153C000C2000400E4B1A68B2F1FF3F05D00D4B4A
:10154C001B68062A08D0002070470B4B1A7808330A
:10155C001B68C3F30313F4E7033B032B03D8DFE847
:10156C0003F004040404002070470120704700BFFE
:10157C003001001034010010E00F00F0074B1A7816
:10158C0008331B68C3F30313062A01D000207047ED
:10159C00032B01D00020704701207047E00F00F0B2
:1015AC000E4B1A68B2F1FF3F05D00D4B1B68062A93
:1015BC0008D0002070470B4B1A7808331B68C3F314
:1015CC000313F4E7033B032B03D8DFE803F0040415
:1015DC000404002070470120704700BF3001001048
:1015EC0034010010E00F00F0074B1A7808331B6829
:1015FC00C3F30313062A01D000207047032B01D03C
:10160C000020704701207047E00F00F00E4B1A6865
:10161C00B2F1FF3F05D00D4B1B68062A08D0002005
:10162C0070470B4B1A7808331B68C3F30313F4E7AA
:10163C00033B032B03D8DFE803F00404040400206D
:10164C0070470120704700BF3001001034010010BA
:10165C00E00F00F0074B1A7808331B68C3F3031331
:10166C00062A01D000207047032B01D000207047C0
:10167C0001207047E00F00F0074B1A7808331B6805
:10168C00C3F30313062A01D000207047032B01D0AB
:10169C000020704701207047E00F00F00D4B1B68D5
:1016AC00B3F1FF3F05D00C4A1268062B08D000207E
:1016BC0070470A4B1B780A4A1268C2F30312F4E70C
:1016CC00052A05D0062A01D000207047012070475A
:1016DC00012070473001001034010010E00F00F0C1
:1016EC00E80F00F00E4B1A68B2F1FF3F05D00D4B1E
:1016FC001B68062A08D0002070470B4B1A78083359
:10170C001B68C3F30313F4E7033B032B03D8DFE895
:10171C0003F004040404002070470120704700BF4C
:10172C003001001034010010E00F00F00E4B1A686D
:10173C00B2F1FF3F05D00D4B1B68062A08D00020E4
:10174C0070470B4B1A7808331B68C3F30313F4E789
:10175C00033B032B03D8DFE803F00404040400204C
:10176C0070470120704700BF300100103401001099
:10177C00E00F00F0064B1B68064A1268062B01D0DE
:10178C0000207047062A01D00020704701207047C6
:10179C003001001034010010014B024A1A607047EE
:1017AC00100000200090D00308B5FFF7C3FE28B14D
:1017BC00754B1B68C3F30423744A1360FFF7DEFEFA
:1017CC0010B1734B734A1A60FFF7EAFE28B1724BE3
:1017DC001B68C3F34233714A1360FFF705FF20B156
:1017EC006F4AD36823F08073D360FFF70FFF40B1CB
:1017FC004FF080430022C3F80C21C3F81021C3F82A
:10180C003825FFF727FF10B1664B03221A60FFF74C
:10181C0033FF58B1644B05221A60783301221A60E9
:10182C00703B00221A60043B3F221A60FFF736FF20
:10183C00002846D04FF08052D2F804145B4BC3F80A
:10184C002015D2F80814C3F82415D2F80C14C3F8D8
:10185C002815D2F81014C3F82C15D2F81414C3F8A8
:10186C003015D2F81814C3F83415D2F81C14C3F878
:10187C004015D2F82014C3F84415D2F82414C3F838
:10188C004815D2F82814C3F84C15D2F82C14C3F808
:10189C005015D2F83014C3F85415D2F83414C3F8D8
:1018AC006015D2F83814C3F86415D2F83C14C3F898
:1018BC006815D2F84014C3F86C15D2F84424C3F858
:1018CC007025FFF70FFF28B1394B1B6803F04F034E
:1018DC00384A1360FFF72AFF60B14FF08043D3F80A
:1018EC00003413F0010F05D04FF080436FF001026C
:1018FC00C3F80024FFF73EFF20B12F4A136843F4CE
:10190C00806313604FF01023D3F80032002B08DBF8
:10191C004FF01023D3F80432002B02DBFFF73CFF0F
:10192C0008BD264B0122C3F80425244BD3F8003400
:10193C00002BFAD04FF010231522C3F800221F4BB6
:10194C00D3F80034002BFAD04FF010231522C3F833
:10195C0004221A4BD3F80034002BFAD0174B002278
:10196C00C3F80425154BD3F80034002BFAD0BFF381
:10197C004F8F1349CA6802F4E062124B1343CB60D9
:10198C00BFF34F8F00BFFDE724030010403501402B
:10199C0074C007400DF0ADBA440200103C05004085
:1019AC00F0ED00E0A00500401056004000C00040E3
:1019BC0058020010E40E00403C17004000E00140CB
:1019CC0000ED00E00400FA0570B506460B4B53F829
:1019DC00204000E00834731C084A52F82330A3421C
:1019EC000AD965682368284698470028F2D0002D4C
:1019FC00F0D00023AB60EDE770BD00BFB03D000040
:101A0C0038B505460F4C00E010340F4B9C4206D005
:101A1C00A368002BF8D02368AB42F5D110E0094C39
:101A2C0000E01034084B9C4209D0A368002BF8D07E
:101A3C002168284601F097FC0028F2D100E0002430
:101A4C00204638BD1C0000205C000020014B1862B1
:101A5C00704700BF7006002010B586B00E4B742482
:101A6C0004FB003400EB8000002305930122049258
:101A7C000F220392029301930093084B4FF4A07230
:101A8C00074901EB8011204600F096FD637B23F0A3
:101A9C000403637306B010BD88050020B537000041
:101AAC00B80A002030B587B000F0A0FC1C4D1D4BCF
:101ABC005D621D4B0593012304930024039402944F
:101ACC0001940094194B4FF480621949284600F098
:101ADC0073FD6B7B23F004036B73284601F0B8FE97
:101AEC00002C06DD0F4B03F118029A61DA6107B086
:101AFC0030BD2046FFF7B0FF0E4B742202FB0432C0
:101B0C0004EB4403D900074B0B44DA601C750A4AFA
:101B1C0002EBC42202F500625A600134E0E700BF18
:101B2C00FC05002070060020C83D0000B11B000021
:101B3C00B806002088050020F80B002008B5034BE0
:101B4C004FF4806202490348FEF77CFFB11B000092
:101B5C00B8060020FC05002008B50348034A121AF9
:101B6C00002101F02EFC08BD88000020B8060020E2
:101B7C0008B50648064A121A064901F0FEFB064A49
:101B8C000649074801F0F9FB08BD00BF0000002022
:101B9C0084000020083E000000000000083E000009
:101BAC000000002008B50C4B01221A700220FFF730
:101BBC000BFF0A4A0A490B4801F0C1F80320FFF752
:101BCC0003FF00F02DFDFEF7FFFB074A137B23F00C
:101BDC000103137308BD00BFB4060020183D0000BC
:101BEC00D03D0000E03D0000FC05002000B59FB09A
:101BFC00174B83F30888174C636943F400736361D4
:101C0C00E02384F822300025E57725766576A576E5
:101C1C00636A43F4E0236362FFF788F8FEF72EFF54
:101C2C004FF0FF33A362E36201248DF811408DF86D
:101C3C00104019951A95084B01AA9A602846FFF78F
:101C4C00C3FE2046FFF7C0FEFFF72CFFFFF776FF21
:101C5C00F813002000ED00E0700600202DE9F043A1
:101C6C0083B004461D464FF02003EFF3118783F336
:101C7C001188BFF36F8FC16899B900294FD13A4BC6
:101C8C009B6893F90E3023610131E160364B9B6800
:101C9C00A36087F31188BFF36F8F002003B0BDE8FA
:101CAC00F08316468268304B9B689A42E5D055EA21
:101CBC0006010CBF4FF001084FF0000831D092F92B
:101CCC000E90494693F90E0001F07AFD81452FDC08
:101CDC004FF000090096019522463946234800F042
:101CEC0019FB0028DAD04FF02003EFF3118583F3B2
:101CFC001188BFF36F8F23689C421FD0F3B1216909
:101D0C0093F90E0001F05CFD0146204601F061FDE7
:101D1C00B0B9B9F1000F15D04FF0010812E02369EA
:101D2C00B1E787F31188BFF36F8F6FF00F00B5E742
:101D3C000146204601F04DFD8146CBE72169E4E7E1
:101D4C004FF00108B8F1000F06D185F31188BFF3ED
:101D5C006F8F6FF00A00A1E72946044801F050FD8F
:101D6C006FF00A009AE700BF700600207006002092
:101D7C008268002A34D038B504461C4B9B689A42C2
:101D8C0031D1DA7B013ADA73C368012B05D0013B00
:101D9C00C36000F0E3F8002038BD4FF02003EFF3F0
:101DAC00118583F31188BFF36F8F016901F011FD69
:101DBC00204601F0F5FDA06058B190F90E3023617A
:101DCC000023036701F044FD2946094801F018FD82
:101DDC00DFE70023E36085F31188BFF36F8FD8E74B
:101DEC006FF0150070474FF0FF30D5E770060020FC
:101DFC007006002038B5B3F1FF3F08BFB2F1FF3FCA
:101E0C0000D138BD0249183000F08AFCF9E700BF58
:101E1C008938000008B5084B1B6803B908BDFEF7EC
:101E2C0003FD0346044A10680344044A136100216D
:101E3C0001F04DFEF2E700BFA8060020700600205E
:101E4C002DE9F0410646884600234FF02002EFF3BF
:101E5C00118782F31188BFF36F8FEBB900230F4A00
:101E6C001361750CF40340F2E7304FF47A720023DF
:101E7C0020184FF0000145EB0101FEF729F9084B42
:101E8C001860084BC3F80080FFF7C4FF87F3118874
:101E9C00BFF36F8F0123E0E7BDE8F08170060020EF
:101EAC00A8060020A406002000234FF02002EFF328
:101EBC00118182F31188BFF36F8F53B9054B9A6868
:101ECC00D37B013BD37381F31188BFF36F8F012355
:101EDC00F3E77047700600200A4B834208D04A682B
:101EEC000B6813604A685A6000230B604B607047A4
:101EFC00283B9B688B42F2D14B7B13F01F0FEED02B
:101F0C00F5E700BF9806002070B50546124E06F1A5
:101F1C00280001F096FC0446B3685A7B12F0200F9F
:101F2C0002D042F008025A7364B175B95A7B12F0B0
:101F3C001F0F0AD1A26942B9DA897F2A05D9064A4C
:101F4C00536208E0044AD468EFE7A34201D0FFF7DC
:101F5C0061FF014B5C6270BD7006002010B5002360
:101F6C004FF02002EFF3118482F31188BFF36F8FCF
:101F7C006BB90C4B9A68D37B0133D3730020FFF7FA
:101F8C00C3FF84F31188BFF36F8F0123F0E74FF089
:101F9C002003EFF3118083F31188BFF36F8F01F0EF
:101FAC0042FC10BD7006002038B50546437B13F08B
:101FBC001F0F05D183690BB1002302E0012300E060
:101FCC0000230BB3154B53F8284F9C4224D064B11B
:101FDC002146284601F00AFCB8B934B10F4BDB6A34
:101FEC009C4202D02468002CF1D10C4B03F1280246
:101FFC002A60DA6A6A601560DD626B7B63F07F03CE
:10200C006B730020FFF780FF38BD63686B602C603A
:10201C0063681D606560F0E70024D8E77006002057
:10202C0010B54FF02003EFF3118483F31188BFF345
:10203C006F8F437B13F0040F04D184F31188BFF32B
:10204C006F8F10BD23F004034373FFF7ADFF2146E0
:10205C00014801F0D5FBF4E7A406002070B5054655
:10206C0000234FF02002EFF3118682F31188BFF3A7
:10207C006F8F26E029462148FFF72EFF26E0636884
:10208C006B602C6063681D60656009E0002422E0D1
:10209C001B4B03F128022A60DA6A6A601560DD6264
:1020AC006B7B63F07F036B73154B9868A84214BF6E
:1020BC0000200120FFF728FF86F31188BFF36F8FF4
:1020CC000123D3B995F90D30002BD3DB0C4B53F80E
:1020DC00284F9C42DAD0002CDAD02146284601F059
:1020EC0085FB0028CBD1002CD2D0054BDB6A9C425F
:1020FC00CED02468002CEED1CAE770BD9806002023
:10210C007006002008B5174B9B68174A126893425B
:10211C0017D0154A00211160144A12686AB1DA8985
:10212C007F2A0AD893F90E10114A1268914204DBE7
:10213C00104A934201D09A6932B10A4B00221A61BB
:10214C0008BDFFF767FEFBE7064A1269824203DD12
:10215C00101A044B1861F3E71846FFF77FFFFFF7DF
:10216C0059FEEDE770060020A0060020A80600200E
:10217C00A40600208805002038B50446183001F06C
:10218C0072FC00234FF02002EFF3118582F31188CB
:10219C00BFF36F8F10E0637B43F010036373154B39
:1021AC009868A04214BF00200120FFF7ADFE85F314
:1021BC001188BFF36F8F012363B994F90D30002B95
:1021CC00E9DA21460C48FFF787FE637B03F07F03B7
:1021DC006373E0E7074B9B68A34200D038BD4FF018
:1021EC002003EFF3118083F31188BFF36F8F01F09D
:1021FC001AFBF3E7700600209806002070B5054620
:10220C00836D03B1984705F1180001F02CFC0023F5
:10221C004FF02002EFF3118682F31188BFF36F8F1A
:10222C001FE0012227E029462A48FFF755FE6B7B69
:10223C0003F07F036B7324E013F0020F29D02846C0
:10224C0001F0D2FA2946FFF747FE6B7B23F002031D
:10225C006B730023AB601CE086F31188BFF36F8FA8
:10226C0001231A46002B34D16B7B13F01F0F02D1C4
:10227C00A9690029D5D012F0010FDDD013F0800F21
:10228C00D1D1154B9868A84214BF00200120FFF74C
:10229C003BFE6B7B43F008036B7305F12803AC6AC0
:1022AC00A342D9D0002CD7D004F1180001F0DBFBED
:1022BC00204601F099FA2146FFF70EFE637B23F0CE
:1022CC00020363730023A36023672046FFF76CFEB1
:1022DC00E3E770BD980600207006002010B5044698
:1022EC0090F90D30002B08DB084B9868A04214BF06
:1022FC0000200120FFF708FE10BD01460448FFF73F
:10230C00EBFD637B03F07F036373EDE77006002046
:10231C009806002010B50C461146064B9868064BE3
:10232C001860DDE9022301F01AFB2046FEF7F8FAEB
:10233C0010BD00BF70060020A00600202DE9F84358
:10234C0004460F4600234FF02002EFF3118682F370
:10235C001188BFF36F8F984608E012F0010811D175
:10236C00A77386F31188BFF36F8F01231A46002BD6
:10237C0036D1637B13F01F0FEFD1A369002BECD187
:10238C000122EAE7184D05F1280921464846FFF7D6
:10239C00A3FDA773AD6A4D4520D065B129462046F3
:1023AC0001F024FA98B935B10F4BDB6A9D4202D08B
:1023BC002D68002DF1D10C4B03F128022260DA6A52
:1023CC0062601460DC620120FFF79EFDC9E76B6858
:1023DC00636025606B681C606C60F4E70025DCE7CB
:1023EC004046BDE8F88300BF7006002008B5054BD9
:1023FC0003F128029A62DA6200210846FFF720FDF9
:10240C0008BD00BF70060020F8B52B4B9A682B4B0B
:10241C009A4246D000234FF02002EFF3118682F34C
:10242C001188BFF36F8F1EE063686B602C6063686C
:10243C001D60656009E0002421E01F4B03F12802B8
:10244C002A60DA6A6A601560DD621B4B9A68537BFE
:10245C0063F07F0353730120FFF756FD86F3118859
:10246C00BFF36F8F0123E3B9134C04F12807A16864
:10247C003846FFF731FDA568A46ABC42DBD0002CBE
:10248C00DBD02146284601F0B1F90028CCD1002C34
:10249C00D3D0094BDB6A9C42CFD02468002CEED100
:1024AC00CBE74FF02003EFF3118083F31188BFF3D8
:1024BC006F8FFEF735FAF8BD7006002088050020F6
:1024CC002DE9F041044648B30646C71701F028FB36
:1024DC0004444FF02003EFF3118883F31188BFF30A
:1024EC006F8F104DA868104B186001F0F8F9A868B0
:1024FC0032463B460D49183000F012F9AA68537B5E
:10250C0043F0100353734046FEF70AFA01F008FB40
:10251C00201A002800DC0020BDE8F081FFF774FFD2
:10252C002046F9E770060020A0060020893800003C
:10253C0038B5B1F1FF3F08BFB0F1FF3F1AD0FFF73C
:10254C00BFFF0446C5176901430141EAD062181A5E
:10255C0062EB05039A0042EA907281001346081957
:10256C0045EB0303DA0042EA5072C100C80B40EAA3
:10257C00424038BD034B9868FFF7FEFD4FF0FF302B
:10258C00F7E700BF70060020014B9868704700BF4A
:10259C007006002038B514461D4654EA050302D1D6
:1025AC0001F043FA38BD2B460249183000F0B8F858
:1025BC00F8E700BF893800002DE9F04387B00446E6
:1025CC000D4616461F46DDF84480DDF8489000F1B4
:1025DC0028038362C3624B460422414601F029FA68
:1025EC00CDF81090CDF80C80109B02930F9B0193AB
:1025FC000E9B00933B46324629462046FEF704FAD2
:10260C0000236365A365054B9B6823B19B6EA36692
:10261C0007B0BDE8F083A366FAE700BF70060020A0
:10262C00F0B587B01F4C204B9C4215D2E36A059342
:10263C00236A0493E3690393A36902936369019387
:10264C0023690093E368A26861682068FFF7B4FF10
:10265C0023685C653034E6E7FFF726FC114C15E087
:10266C00276823EAE3730025590CD80340F2E736B8
:10267C004FF47A720023801945EB0101FDF728FD18
:10268C0002462B463846FFF785FF3034064B9C42FA
:10269C0004D2636AB3F1FF3FF7D0E1E7FFF75EFCCA
:1026AC0007B0F0BD5C0000205C000020034B1868F4
:1026BC00984200D070470020FCE700BF14000020B7
:1026CC0030B1044A5268904201D000687047002033
:1026DC00704700BF1400002008B5044B1B680BB1F9
:1026EC00002008BDFEF7A0F8FBE700BFAC060020F9
:1026FC0010B5FFF7DBFF0446FFF7EEFF54B1A368FC
:10270C00181A20EAE070054B1B6913B1834200DAFA
:10271C00184610BD6FF00040F5E700BF70060020B2
:10272C002DE9F04704460D46B3F1FF3F08BFB2F167
:10273C00FF3F66D012F1010843F100096FF001036D
:10274C00B3EB08064FF0FF3A6AEB0907002E77F15E
:10275C00000310DAE5604646B8F1010F79F1000389
:10276C001CDB00234FF02002EFF3118582F311885C
:10277C00BFF36F8F26E0FFF7AFFF234BD3E90023A6
:10278C00121843EBE07318EB020249EB03016FF0F4
:10279C000103B3EB02086AEB0109DBE70126E0E772
:1027AC00D31A836043686360206043681C60446094
:1027BC00D0B1FFF77BFF84421DD085F31188BFF3A6
:1027CC006F8F0123EBB9FFF787FF3044A060FFF751
:1027DC006DFF0028ECD08268A3689A42E0DC9B1A5B
:1027EC00A360FFF76DFFF4E7084B23605A68626043
:1027FC0014605C60DDE7FFF77BFF0021FDF7E6FF6F
:10280C00DBE7BDE8F08700BF880000201400002043
:10281C0070B50446FFF776FC4FF02003EFF31185FB
:10282C0083F31188BFF36F8F234B1C60FFF73EFFC0
:10283C00044620B38268204B1B689A421FDC1F4E53
:10284C00D6E90001801841EBE271C6E900019B1A40
:10285C00194A13600023A360204601F0F2F885F3B7
:10286C001188BFF36F8FE368204698474FF0200321
:10287C00EFF3118583F31188BFF36F8FD6E724B183
:10288C00A3680D4A12689B1AA3600C480A490C688D
:10289C00D0E90023121943EBE473C0E900230024B0
:1028AC000C60FFF725FF2146FDF790FF85F311889B
:1028BC00BFF36F8F70BD00BFAC06002088000020F6
:1028CC0010B500214FF02003EFF3118483F311882E
:1028DC00BFF36F8F0022002369B9FDF7A5FF074BEB
:1028EC00D3E90023121843F1000384F31188BFF3DA
:1028FC006F8F0121F0E71046194610BD88000020AB
:10290C0010B5064C064B9C4206D2A2686168204664
:10291C0001F00AF91434F5E7002010BD5C0000202A
:10292C005C0000200020704738B504460D46452059
:10293C00A04729465220A04729465220A04738BD1F
:10294C002DE9F04F83B081468A4690461D469DF88E
:10295C003030019300264FF0100B3746402407E02F
:10296C0009282AD9572351461844C847013601274C
:10297C00032C33DD043CC4F12002A4F1200328FA1B
:10298C0004F005FA02F2104325FA03F3184310F091
:10299C000F00E5D1002FE3D1002CE1D00BF1FF3378
:1029AC0000930D9B9B4516DC019B012B07D0019BD3
:1029BC00022B0AD0DDF800B0DAE73023D3E751461A
:1029CC003020C847DDF800B0D2E751462020C84778
:1029DC00DDF800B0CCE7DDF800B0C9E7019B032BB4
:1029EC0002D003B0BDE8F08F0D9BC6EB430603E0AD
:1029FC0051462020C8472646741E002EF8DCF0E70E
:102A0C002DE9F04F87B007460E46144605934FF05C
:102A1C0000084FF0FF39C246454602E03146B84740
:102A2C0001342078002800F0878145B92528F5D19C
:102A3C004FF000084FF0FF39C2460125F0E702467F
:102A4C00A0F12503552B00F26981DFE813F0620138
:102A5C0067016701670167016701670167016F0122
:102A6C006701670156005D005D005D005D005D0063
:102A7C005D005D005D005D00670167016701670136
:102A8C0067016701670167016701670167016701FA
:102A9C0067016701670167016701670167016701EA
:102AAC0067016701670167016701670167016701DA
:102ABC00670167010C016701670167016701670125
:102ACC00670167016701670167015A018A006701A5
:102ADC006701670170008A00670167017000670178
:102AEC00670167010201670167013A016701CF00C5
:102AFC00670167010C0167017000B9F1000F03DA7F
:102B0C00BAF1000F00F01581B9F1000F0CDB09EBE5
:102B1C00890902EB4909A9F13009BAF1000F7FF4D8
:102B2C007FAF4FF0020A7BE7A2F13009F5E7682886
:102B3C000CD06C2810D0B8F1000F0BD031462520EA
:102B4C00B84731462078B847002569E7B8F1680FD7
:102B5C00EFD14820804663E7B8F16C0FEBD14C20E5
:102B6C00F8E7B8F17A0F0AD0B8F16C0F17D0B8F1BA
:102B7C004C0F19D0059B1A1D05921D6803E0059B8F
:102B8C001A1D05921D68002D29DBCDF800905346C7
:102B9C002A4631463846FDF759FC002540E7059B8F
:102BAC001A1D05921D68EEE7059B073323F00703FA
:102BBC0003F1080205921D685B6815F10042029250
:102BCC0043F100030393DDE90223012B08BF002A24
:102BDC00D9D331463846FFF7A7FE002520E731460A
:102BEC002D20B8476D4209F1FF39CEE7B8F17A0FC5
:102BFC000AD0B8F16C0F14D0B8F14C0F16D0059B5D
:102C0C001A1D05921A6803E0059B1A1D05921A6895
:102C1C00CDF80090534631463846FDF717FC002599
:102C2C00FEE6059B1A1D05921A68F1E7059B073312
:102C3C0023F0070303F108020592D3E90023012BCB
:102C4C0008BF002AE4D331463846FFF76DFE002555
:102C5C00E6E631463020B84731467820B8474FF089
:102C6C0008094FF0010A2378702B0BD0B8F16C0FC8
:102C7C0017D0B8F14C0F1AD0059B1A1D05921A6883
:102C8C00002304E0059B1A1D05921A680023CDF859
:102C9C000490CDF800A031463846FFF751FE0025D0
:102CAC00BEE6059B1A1D05921A680023EFE7059BEB
:102CBC00073323F0070303F1080205921A685B68D7
:102CCC00E5E7059B1A1D0592D3F800B05D4602E0BE
:102CDC0001353146B84728780028F9D1BAF1030FED
:102CEC0001D000259CE6A5EB0B03A9EB030303E045
:102CFC0031462020B8472B465D1E002BF8DC002502
:102D0C008EE6059B1A1D059231461868B8470025BA
:102D1C0086E631462520B847002581E63146252038
:102D2C00B84731462078B847002579E64FF0030ABA
:102D3C0076E64FF0010A73E607B0BDE8F08F0FB4EA
:102D4C0000B583B004A951F8040B0191FDF7D8FB31
:102D5C0003B05DF804EB04B0704708B504460846B0
:102D6C0011461A46A047FFF70FFCFEF70FF8B1FA11
:102D7C0081F18068B0F5004F34BF0846481CC0F1A3
:102D8C001F007047F8B504460D460368CE008268F4
:102D9C00B2F5004F25D353F83130E1681940204685
:102DAC00FFF7E5FF636803EBC0035A68511C5960D9
:102DBC00F2B9012303FA00F2636913436361636898
:102DCC0043F8305023683344A268B2F5004F0BD35C
:102DDC009D6023681E44A368B3F5004F06D3F560CD
:102DEC00F8BD33F83130D8E79D80F2E7F580F7E78E
:102DFC00636853F8300023684FEAC00C03EBC00142
:102E0C00A268B2F5004F1CD38F683344B2F5004F63
:102E1C0019D39F6021680E44A368B3F5004F14D3F7
:102E2C00F060226802EBC702A368B3F5004F0ED323
:102E3C00D56023686344A268B2F5004F09D39D6046
:102E4C00CEE78F88E1E79F80E4E7F080E9E7D58063
:102E5C00EFE79D80C4E72DE9F0410646CF1D27F032
:102E6C00070701EB020828F00708A8EB07084FEA50
:102E7C00D80807603F6007F118037B60C7F808802B
:102E8C00B8F5004F1FD36FF00043FB6000247C614A
:102E9C0041463846FFF76BFF431C23F06043033376
:102EAC003B613568A9682846FFF761FFA0420DDB3E
:102EBC006B6803EBC40300225A6033685B6843F809
:102ECC0034200134EDE747F6FF73DEE73A69A8EBEF
:102EDC0002033968B868B0F5004F07D341F83230B7
:102EEC0039693846FFF74EFFBDE8F08121F83230E2
:102EFC00F6E7704708B500F08EFD00B108BD422022
:102F0C000021FFF715FBF9E700F180431A683AB18D
:102F1C004FF08042D2F8042311420CD0012200E081
:102F2C00002210464AB182B000221A601B6801933D
:102F3C00019B02B070470022F3E770474FF08043CB
:102F4C000322C3F8082370474FF080430322C3F8D1
:102F5C0004237047C06801EB410100EB810070470E
:102F6C00406800EB8100704708B5C9B2FFF7F2FF6B
:102F7C00437A1BB9037A1BB9012008BD0220FCE778
:102F8C000020FAE770B50646CCB22146FFF7E8FF01
:102F9C00054621463046FFF7DDFF4FF02003EFF3E7
:102FAC00118283F31188BFF36F8F037A8BB1013BCE
:102FBC00DBB2037283B903604360E97801F18041AD
:102FCC0001240C604372184682F31188BFF36F8F93
:102FDC0070BD6FF04400F7E70020F5E703688B4203
:102FEC0005D033B11B68002BF9D1002070470120AC
:102FFC007047002070474FF02003EFF3118283F3EA
:10300C001188BFF36F8F00230B60436833B11960D5
:10301C00416082F31188BFF36F8F7047416001608C
:10302C00F7E703464FF02001EFF3118281F311888B
:10303C00BFF36F8F006868B110B4016819605C68E9
:10304C00A04205D082F31188BFF36F8F10BC70477C
:10305C005960F7E782F31188BFF36F8F7047F8B5AB
:10306C0007460E46FFF776FF0546012343722846B6
:10307C00FFF7D7FF034628B15C689A68314638469B
:10308C00A047F4E7F8BD08B50022FDF7A7FA08BD84
:10309C0038B50546002201211046FDF79FFC0020A3
:1030AC00FDF78CFC4FF080430122C3F81825FFF785
:1030BC004BFF002408E021462846FFF74BFF002376
:1030CC00036043600134E4B2012CF4D9002038BD14
:1030DC0070477047401A20F07F40704710B5044687
:1030EC000230FDF7D7FAFDF707FBA04206D0FDF73B
:1030FC0003FB04460230FDF7CDFAF4E710BD38B5FA
:10310C000446FDF7F9FA054601462046FFF7E2FFB3
:10311C0001280DD02046FDF7BDFAFDF7EDFA054666
:10312C000146A01EFFF7D6FFB0F5000F04D238BD44
:10313C002846FFF7D3FFFAE72846FFF7CFFFF6E75D
:10314C0010B50446FDF7C8FAFDF7EEFA2046FFF776
:10315C00D6FFFDF7C9FA10BD0369C268934204D8C3
:10316C008068801A0344581E70479B1A581E70477B
:10317C002DE9F843044688461646C5688768A7EBD0
:10318C000509914507D94068284400F0F6F8354404
:10319C00E560BDE8F88340684A46284400F0EDF845
:1031AC00ED1B35442A4608EB0901606800F0E5F890
:1031BC00E560EEE72DE9F843064688461746C568F4
:1031CC004FF0000918E0641B621EB3685C1B94424C
:1031DC0028BF1446BC4228BF3C4670682246414674
:1031EC00284400F0CAF8A144A0443F1B2544B3680E
:1031FC00AB4209D0F5604FB13469A542E3D3B26854
:10320C00641B1444621EE0E70025F3E74846BDE862
:10321C00F88308B5FDF71EFB08BD08B5FFF7F9FFED
:10322C00002008BD08B50021012000F001F808BD00
:10323C0008B500F08AFA08BD08B501460068FFF72A
:10324C00F7FF08BD08B5FDF72DFCFDF777FD08BDB0
:10325C000020704708B500231370CB1E032B12D827
:10326C00DFE803F002060A0E1146FDF7E3FC08BD89
:10327C000021FDF77FFCFAE70021FDF79FFCF6E744
:10328C00FDF7C6FCF3E70020F1E743685A1E134232
:10329C0006D11F2B06D903681A4205D000207047AF
:1032AC0000207047002070470120704710B5072898
:1032BC0004D80446FDF7AEFD204610BD6FF0150492
:1032CC00FAE700B585B00B6801934B688A68202B30
:1032DC0012D9B3F1004F11D8013BB3FA83F3C3F108
:1032EC001F035B0003F03E031343039301A9FFF795
:1032FC00DDFF05B05DF804FB0823F5E73E23F3E79B
:10330C002DE9F84380460F4699461446002509E0FE
:10331C003146E0B2FFF7D5FF044610F1160F12D07C
:10332C0001340135BD420EDA58F825607368002B64
:10333C00F7D0B9F1000FEBD03046FFF7A6FF00280D
:10334C00E6D16FF015042046BDE8F88308B5FDF70B
:10335C0071FD08BD02460B781BB102F8013B01312F
:10336C00F9E71370704703780A78934203D113B1CD
:10337C0001300131F7E7981A704710B480EA010365
:10338C0013F0030F01D0034617E0034613F0030FAD
:10339C000BD0A2B111F8014B03F8014B013AF5E740
:1033AC0051F8044B43F8044B043A032AF8D804E0D0
:1033BC0011F8014B03F8014B013A002AF8D110BC6B
:1033CC00704710B4CCB2034613F0030F04D09AB17B
:1033DC0003F8014B013AF7E7C9B241EA012141EA8E
:1033EC000141032A06D943F8041B043AF9E703F810
:1033FC00014B013A002AFAD110BC70474FF0FF3054
:10340C00704708B5FEF7D0F908BD70B50C46C66814
:10341C0043681B7A01F01F0545EA43152846FDF762
:10342C00BDFD4FF0A04205F5E07152F8213023F4B8
:10343C00403342F82130F368E34013F0010F34D0ED
:10344C003369E34013F0010F31D0B369E34013F05B
:10345C00010F13D0F369E34013F0010F07D1736927
:10346C0023FA04F414F0010F06D0012100E003212B
:10347C002846FDF747FD19E00221F9E7716921FAA9
:10348C0004F414F0010F0ED103214FF0A04205F506
:10349C00E07552F8253023F4403343EA014342F8F7
:1034AC002530002002E00221EFE7002070BD002053
:1034BC00FCE743685B68D3F810350B60002070475D
:1034CC0043685B68D3F8040542400A404240C3F8A5
:1034DC0004250020704743685B68C3F8081500207A
:1034EC00704743685B68C3F80C150020704743684D
:1034FC005A68D2F804354B40C2F8043500207047A6
:10350C0070B5C46845682E7A01F01F0545EA46156A
:10351C00B2F5A03F2DD0B2F5005F36D0E56801269C
:10352C008E403543E560B2F5005F34D02569012645
:10353C008E4035432561B2F5A03F32D0A2690125FA
:10354C008D4022EA0502A261B3F5C02F2ED0E269AC
:10355C0001258D4022EA0502E261B3F5802F2AD0C5
:10356C00636901228A4023EA02036361FFF74DFF7E
:10357C0070BD05F5E0754FF0A04656F8255015F0D6
:10358C00010FC8D06FF02200F2E7E56801268E40EB
:10359C0025EA0605C6E7256901268E4025EA0605BB
:1035AC00C8E7A26901258D402A43CCE7E2690125D1
:1035BC008D402A43D0E7636901228A401343D4E744
:1035CC0070B4C068051D4368DBB10E4600240AE0E8
:1035DC000B6843606C68A1420FD16B600DE06C60AE
:1035EC000BE01C461B685BB19E42FAD1002CEFD05D
:1035FC000B6823606B689942F1D000230B6000E0EC
:10360C0052B162B143680B6041606B680BB1002032
:10361C0006E06960002003E06FF0150000E0002078
:10362C0070BC704710B5C4683AB1236901228A4056
:10363C0013432361FFF7E9FE10BD236901228A4081
:10364C0023EA0203F5E708B50122FFF7EBFF08BDFB
:10365C0008B50022FFF7E6FF08BDF0B4C66847685E
:10366C003269F3681340B269F1690A4323EA020331
:10367C000122002011E04FF0020C4FF0A04501F5A3
:10368C00E07155F8214024F4403444EA0C4445F8E8
:10369C00214023EA02030130520073B11A42FAD0DE
:1036AC003C7A00F01F0141EA44117469C44014F0E3
:1036BC00010FE0D14FF0030CDFE7F0BC7047F0B422
:1036CC00C26847681369D1680B409169D06901439E
:1036DC0023EA01037968D1F810155069484023EAB0
:1036EC0000000122002401E0013452009BB113427E
:1036FC00FAD03D7A04F01F0141EA45114FF0A04683
:10370C0001F5E07156F8215025F4403546F821506A
:10371C0023EA0203E8E7F0BC70470B46C26892E864
:10372C00030083E803000020704708B500F079F926
:10373C0008BD4FF02002EFF3118382F31188BFF321
:10374C006F8FFEE708B5FFF7F4FFF8B505460E4698
:10375C004FF02003EFF3118783F31188BFF36F8FC2
:10376C00FEF712FF044631462846FFF7EBFF87F3BE
:10377C001188BFF36F8F2046FDF708FBF8BD10B51D
:10378C0000F08FF90446022808DD012100F09FF9B2
:10379C002046FEF75BF9FDF777F910BD0120F4E741
:1037AC0008B5FFF796FC08BD08B54FF02002EFF303
:1037BC00118382F31188BFF36F8FFFF7E0FFF4E7FB
:1037CC00884200DA0146002901DB084670470020D8
:1037DC00704708B5806890F90E308B4201D10020FB
:1037EC0008BDFEF7ABFDFBE78068704790F90E2033
:1037FC0091F90E309A4201DB00207047012070478E
:10380C00084659B908B5EFF3058313B9FDF788F8E5
:10381C0003E081F31188BFF36F8F08BD81F311882A
:10382C00BFF36F8F704708B5034628B9EFF30582D5
:10383C0012B9FDF775F803E083F31188BFF36F8FAE
:10384C0008BD03460068834200D070470020FCE7A7
:10385C0038B5054600234FF02002EFF3118482F3B4
:10386C001188BFF36F8F43B92846FEF79DFB84F395
:10387C001188BFF36F8F0123F5E738BD70B504468F
:10388C00A0F1180550F8103CFBB100234FF02002BA
:10389C00EFF3118682F31188BFF36F8F13E0284684
:1038AC00FFF7A2FF2946FEF717FB14F80B3C23F099
:1038BC00020304F80B3C002344F8103C86F31188F7
:1038CC00BFF36F8F0123002BE9D014F80B3C03F0EE
:1038DC00EB0304F80B3C2846FFF7BAFF70BD38B574
:1038EC00054600234FF02002EFF3118482F3118878
:1038FC00BFF36F8F43B92846FEF7F0FC84F31188B1
:10390C00BFF36F8F0123F5E738BD70B505460E4642
:10391C00FEF7E4FC6B7B43F002036B73AEB1AE605D
:10392C003468A64219D05CB121462846FFF75EFFE9
:10393C0060B92CB173689C4202D02468002CF2D17F
:10394C002E6073686B601D60756070BD63686B6022
:10395C002C6063681D606560F7E70024E3E72DE9E0
:10396C00F84305460F469146984600244FF0200335
:10397C00EFF3118683F31188BFF36F8F4CB939467F
:10398C002846FFF7C2FF86F31188BFF36F8F01241F
:10399C00F4E74A4643462846FEF72CFABDE8F8837E
:1039AC0070B5064600234FF02002EFF3118582F329
:1039BC001188BFF36F8F1C464BB93046FFF741FFA0
:1039CC00044685F31188BFF36F8F0123F4E7DCB154
:1039DC0000234FF02002EFF3118582F31188BFF31F
:1039EC006F8F8BB92046FFF7FFFE2146FEF774FA66
:1039FC00637B23F0020363730023A36085F31188B8
:103A0C00BFF36F8F0123ECE71CB104F1180000F039
:103A1C002AF8204670BDEFF30580003818BF01204E
:103A2C00704708B5FDF762FA08BD08B5FEF7F8FA5D
:103A3C0008BD0373427381730023C3738361C36135
:103A4C00704710B50446FEF73BFE18B1A1688368B9
:103A5C000B44836062682368136062685A600023B9
:103A6C002360636010BD70B5044600234FF0200244
:103A7C00EFF3118682F31188BFF36F8F6FF015008F
:103A8C0008E02046FFF7DDFF284686F31188BFF3D8
:103A9C006F8F01231D461BB92368002BF1D1F4E76E
:103AAC0070BD10B500234FF02002EFF3118482F3A8
:103ABC001188BFF36F8F4FF0FF303BB9FEF718FE44
:103ACC0084F31188BFF36F8F0123F6E710BDF8B5AF
:103ADC0006460F4600234FF02002EFF3118582F3C8
:103AEC001188BFF36F8F0AE0012404F00104012850
:103AFC0000DD7CB985F31188BFF36F8F01231C4661
:103B0C006BB9FEF7F5FDB0F1FF3FEDD0B042ECDD47
:103B1C000124EAE739463046FCF758FEEAE7F8BDDF
:103B2C0008B5FEF7CDFE08BD10B500F10C04C4605D
:0A3B3C000461FFF790F910BD704717
:023B4600FFFF7F
:083B4800C4C5FF7F010000006D
:103B5000C90E000000000000273200000000000035
:103B60000D290000000000002D05000000000000ED
:103B7000790E0000000000009D3000001C000020B5
:103B8000511400002C000020790700003C000020A8
:083B9000B91100004C000020F7
:103B980000000000A905000000000000313200000C
:103BA8000000000031320000000000003132000047
:103BB8000000000031320000000000003132000037
:103BC80000000000E1100000000000003132000099
:103BD8000000000031320000000000003132000017
:103BE8000000000031320000000000003132000007
:103BF80000000000313200000000000031320000F7
:103C080000000000313200000000000031320000E6
:103C18000000000031320000000000001107000021
:103C280000000000313200000000000031320000C6
:103C380000000000313200000000000031320000B6
:103C480000000000313200000000000031320000A6
:103C58000000000031320000000000003132000096
:103C68000000000031320000000000003132000086
:103C78000000000031320000000000003132000076
:103C88000000000031320000000000003132000066
:103C98000000000031320000000000003132000056
:103CA8000000000031320000000000003132000046
:103CB8000000000031320000000000003132000036
:083CC800000000003132000091
:103CD0000338FDD8704700004750494F5F3000005F
:103CE000434C4F434B00000093300000912F0000E5
:103CF000E905000000000000752F0000000100042D
:103D00000401080C7379735F636C6F636B000000D0
:103D10005465726D696E616C00000000525454006D
:103D20005345474745520000464C4153485F3000D9
:103D30005352414D5F30000002000000403D000042
:103D400000000000283D00002400020700000020C1
:103D5000303D00001E000B11FD0F0000BF340000BD
:103D6000CD340000E3340000EF340000FB340000E9
:103D70000D350000CD350000533600005D360000E3
:103D800000000000FFFFFFFF0000005000000000E7
:103D9000554152545F3000000100000075130000CF
:103DA000C1140000A5130000B51300002737000060
:103DB000503B0000883B0000903B0000983B000017
:103DC000983B0000F5FFFFFF6D61696E0000000089
:103DD00076322E332E302D7263312D6E63733200A6
:103DE0002A2A2A20426F6F74696E67205A657068AC
:103DF0007972204F53206275696C642025732025E9
:083E000073202A2A2A0A00009F
:103E0800312900000934000000C20100000103004C
:0C3E18000090D0031400002014000020D3
:103E2400E03C0000FC3C0000E83C00009000002066
:103E3400903D0000983D00009C3D000008000020DB
:103E4400043D00000000000000000000000000002D
:103E5400D83C0000843D0000583D0000640500206B
:103E64005C0000205C000020000000000000000056
:103E74000F0000007000002070000020000000000F
:083E8400000000000F00000027
:0400000300000B3DB1
:00000001FF
